:100000000C9469010C94011A0C94DA190C94910166
:100010000C9491010C9491010C94471B0C94910148
:100020000C9491010C9491010C9491010C94910108
:100030000C9491010C9491010C9491010C949101F8
:100040000C9490190C9491010C945E190C9438192D
:100050000C9491010C9491010C9491010C949101D8
:100060000C94281A0C9491014E4D3A4246523A494A
:100070004E49540A004E4D3A494E49543A52425460
:1000800020703D25640A004E4D3A4246523A494E90
:100090005420703D2564206D3D25640A004E4D3A84
:1000A0004246523A494E5420703D2564206D3D250C
:1000B000640A004E4D3A5354503A485720563D2555
:1000C0006420463D2564204D3D25640A004E4D3A8E
:1000D0005354503A49443D2564204D3D25640A005F
:1000E0004E4D3A505245533A2573282564292070C5
:1000F0003D256420743D25640A004E4D3A42465227
:100100003A4F4B0A004E4D3A534C503A4157414BEF
:10011000450A004E4D3A534C503A534C45455020F9
:10012000733D25640A0A00322E332E320A00207CE9
:100130005F5C2F602C0A0702200220B28710034068
:1001400001200024022210022202022002220022A8
:100150002002022022271013410101010322203036
:100160004020305203402214020310522402217115
:10017000010010101210122210100224010103229B
:100180000300200101003220371210012132260124
:10019000284032221210121222432224121001226D
:1001A0002470C122240F0F00000000230026002924
:1001B000004E4D3A4C4F4F503A494E5420703D2519
:1001C0006420763D25640A004E4D3A4C4F4F503A1C
:1001D0002573282564293A53455420743D2564200D
:1001E000763D25642E253034640A004E4D3A4C4F3E
:1001F0004F503A2573282564293A53455420743DBD
:10020000256420763D25642E253032640A004E4D4B
:100210003A4C4F4F503A2573282564293A53455498
:1002200020743D256420763D25640A00000000000E
:10023000240027002A0000000000250028002B00D1
:10024000040404040404040402020202020203037C
:100250000303030301020408102040800102040884
:100260001020010204081020000000080002010014
:100270000003040700000000000000004E4D3A4952
:100280004E49543A4C4942205645523D322E332E67
:10029000322043503D524E4E4E412D2D2D200A000E
:1002A0004E4D3A494E49543A494E4F3D54656D7052
:1002B0002657696C672076312E30320A004E4D3A4F
:1002C000494E49543A5645523D312E380A00541D84
:1002D0001F2011241FBECFEFD8E0DEBFCDBF11E03D
:1002E000A0E0B1E0E0E7FFE402C005900D92A43A7F
:1002F000B107D9F724E0A4EAB1E001C01D92A6300D
:10030000B207E1F711E0C8E6D1E004C02197FE0191
:100310000E948D27C736D107C9F70E94421F0C944F
:10032000AB270C940000EAE8F2E0A089B18982E0F2
:100330008C93A485B5851C92A685B7851C92108EDA
:10034000A489B58986E08C93A289B3898C91806158
:100350008C93A289B3898C9188608C93A289B3898C
:100360008C9180688C930288F389E02D80818F7D49
:10037000808308950F931F93942FE0ECF3E0309166
:100380007A0231838283668325834481487F492BA7
:10039000477F88E0089F80011124042B0F7E04838F
:1003A000CF011F910F91089580910602909107024D
:1003B000891B990B0895AF92BF92CF92DF92EF9273
:1003C000FF920F931F93CF93DF936C017B018B01FF
:1003D000040F151FEB015E01AE18BF08C017D1074F
:1003E00059F06991D601ED91FC910190F081E02DD9
:1003F000C6010995892B79F7C501DF91CF911F912E
:100400000F91FF90EF90DF90CF90BF90AF90089545
:10041000FC01538D448D252F30E0842F90E0821B0A
:10042000930B541710F0CF96089501970895FC018F
:10043000918D828D981761F0A28DAE0FBF2FB11DE7
:100440005D968C91928D9F5F9F73928F90E008953F
:100450008FEF9FEF0895FC01918D828D981731F0F9
:10046000828DE80FF11D858D90E008958FEF9FEF4D
:100470000895FC01918D228D892F90E0805C9F4F23
:10048000821B91098F73992708958AE892E00E9450
:10049000390221E0892B09F420E0822F0895FC0124
:1004A000A48DA80FB92FB11DA35ABF4F2C91848DD5
:1004B00090E001968F739927848FA689B7892C9332
:1004C000A089B1898C91837080648C93938D848D85
:1004D000981306C00288F389E02D80818F7D808388
:1004E0000895EF92FF920F931F93CF93DF93EC0148
:1004F00081E0888F9B8D8C8D98131AC0E889F989CB
:10050000808185FF15C09FB7F894EE89FF896083CD
:10051000E889F98980818370806480839FBF81E04E
:1005200090E0DF91CF911F910F91FF90EF90089590
:10053000F62E0B8D10E00F5F1F4F0F731127E02E6B
:100540008C8D8E110CC00FB607FCFACFE889F989A3
:10055000808185FFF5CFCE010E944F02F1CFEB8D58
:10056000EC0FFD2FF11DE35AFF4FF0829FB7F89477
:100570000B8FEA89FB8980818062CFCFCF93DF9395
:10058000EC01888D8823B9F0AA89BB89E889F989AB
:100590008C9185FD03C0808186FD0DC00FB607FCE0
:1005A000F7CF8C9185FFF2CF808185FFEDCFCE0113
:1005B0000E944F02E9CFDF91CF91089580E090E053
:1005C000892B29F00E94450281110C9400000895A6
:1005D000833081F028F4813099F08230A9F00895B9
:1005E0008730A9F08830C9F08430B1F48091800060
:1005F0008F7D03C0809180008F7780938000089565
:1006000084B58F7784BD089584B58F7DFBCF8091AD
:10061000B0008F778093B00008958091B0008F7DF7
:10062000F9CF1F93CF93DF93282F30E0F901E859DA
:10063000FD4F8491F901EC5AFD4FD491F901E05C32
:10064000FD4FC491CC23A9F0162F81110E94E8021E
:10065000EC2FF0E0EE0FFF1FEA5CFD4FA591B49187
:100660008FB7F894EC91111108C0D095DE23DC937C
:100670008FBFDF91CF911F910895DE2BF8CFCF93DD
:10068000DF9390E0FC01EC5AFD4F2491805C9D4F7C
:10069000FC0184918823D1F090E0880F991FFC0120
:1006A000E45DFD4FA591B491FC01EA5CFD4FC5915D
:1006B000D49161110EC09FB7F8948C91E22FE09510
:1006C0008E238C932881E223E8839FBFDF91CF9113
:1006D00008958FB7F894EC91E22BEC938FBFF6CF8F
:1006E0008E3008F08E502091260190E4299F9001D1
:1006F00011248770822B80937C0080917A00806423
:1007000080937A0080917A0086FDFCCF80917800FA
:100710009091790008953FB7F894809102029091EA
:100720000302A0910402B091050226B5A89B05C062
:100730002F3F19F00196A11DB11D3FBFBA2FA92F60
:10074000982F8827BC01CD01620F711D811D911D5D
:1007500046E0660F771F881F991F4A95D1F70895C5
:100760008F929F92AF92BF92CF92DF92EF92FF92C1
:100770006B017C010E948B034B015C01C114D1040D
:10078000E104F104B9F00E948B03681979098A0920
:100790009B09683E73408105910580F321E0C21AF0
:1007A000D108E108F10888EE880E83E0981EA11CAC
:1007B000B11CE4CFFF90EF90DF90CF90BF90AF904F
:1007C0009F908F9008952FB7F8946091FE017091DB
:1007D000FF0180910002909101022FBF0895E9E688
:1007E000F0E02081237F880F991F880F991F282B05
:1007F0002083E99A0895823068F4E82FF0E0813090
:1008000051F0E898EE0FFF1FEE5DFE4F8DE094E093
:10081000918380830895E998F5CF0895952F8230CC
:10082000A8F4E82FF0E0EE0FFF1FEE5DFE4F71839E
:100830006083813041F0909169009C7F492B409307
:100840006900E89A0895842F0C94EF03089520918D
:10085000D801260F3327331F21323105ECF42091C4
:100860004E02FC0190E080E0243069F082E00895BF
:10087000A091D8012191AC014A545E4FA40FB52F2D
:10088000B11D2C930196861798F38091D801680FBB
:100890006093D80180E0089581E0089510924E029F
:1008A00081E080934D021092280261E082E10E9473
:1008B000110361E083E10E941103E9EBF0E0808124
:1008C0008E7F808380818D7F80838DEF8093B800C1
:1008D00085E48093BC000895CF93DF9391E09093DB
:1008E000B5018823B9F0C091B800D091BA008091C9
:1008F000BC008A7B8093BC0060E082E10E9411030F
:1009000060E083E10E9411030E944E04D093BA007C
:10091000C093B800DF91CF91089508950895089588
:10092000E091070280910602E81730F4F0E0E85FFA
:10093000FD4F808190E008958FEF9FEF0895909193
:100940000702809106022FEF3FEF981748F4E92F36
:10095000F0E0E85FFD4F208130E09F5F9093070259
:10096000C9010895CF92DF92EF92FF920F931F93E8
:10097000CF93DF937C01CB018A0120917702222360
:1009800089F0EB016B01C40ED51ECC15DD0569F0B5
:100990006991D701ED91FC910190F081E02DC701A3
:1009A0000995F3CF642F0E942704C801DF91CF91EE
:1009B0001F910F91FF90EF90DF90CF900895CF930C
:1009C000DF931F92CDB7DEB7698320917702222390
:1009D000F9F020917402203258F021E030E0FC015F
:1009E0003383228390E080E00F90DF91CF910895D0
:1009F00080917502E82FF0E0EC5AFD4F99819083C9
:100A00008F5F809375028093740281E090E0ECCF59
:100A100061E0CE0101960E942704F7CF90E080E0CC
:100A20000895109207021092060210927502109219
:100A300074020E944E048DE894E09093D701809355
:100A4000D6018EE894E09093DB018093DA0108955B
:100A5000CF92DF92EF92FF92CF93DF93EC01288148
:100A600039812330310529F12115310511F141E09A
:100A700022303105F9F04A854423E1F02130310577
:100A8000C1F4CE80DF80E884F9840E94E303C61AB3
:100A9000D70AE80AF90A2A813B814C815D81A8EED8
:100AA000B3E00E94D32541E0C616D706E806F90652
:100AB00008F440E0842FDF91CF91FF90EF90DF901A
:100AC000CF900895CF92DF92EF92FF92CF93DF9372
:100AD000EC010E94E3036B017C012A813B814C8184
:100AE0005D81A8EEB3E00E94D325C60ED71EE81E96
:100AF000F91ECE82DF82E886F98681E08A87DF915F
:100B0000CF91FF90EF90DF90CF9008950895DC0192
:100B10001296ED91FC91139714962D913C91220F12
:100B2000331F2E0F3F1F2E173F0741F081919191E8
:100B3000DC0114964C916413F6CF089590E080E0A8
:100B400008950F931F93CF93DF93EC018B01FB016B
:100B500066810E9487050097B1F0F8012481277013
:100B6000223089F43581FC01268132130CC0E881E2
:100B7000F9810280F381E02DBC01CE01DF91CF919C
:100B80001F910F910994DF91CF911F910F910895BB
:100B9000FC01838187708860838384818F71806288
:100BA00084836783CF010895E091A801F091A901A2
:100BB000309721F00280F381E02D099408950F937E
:100BC0001F930E94E3030091AA011091AB012091B1
:100BD000AC013091AD01601B710B820B930B1F9127
:100BE0000F9108959C018091A8019091A90182170D
:100BF0009307F1F09091B2019F719093B2013093FD
:100C0000A9012093A801E091A801F091A9013097D2
:100C100021F00190F081E02D09950E94E30360939B
:100C2000AA017093AB018093AC019093AD0108953C
:100C30008091B201805E8093B201E5CF0F931F9344
:100C40000E94DF052091B3012077203779F000E181
:100C500017E220E030E0061717072807390758F495
:100C60008DE191E01F910F910C94F20500E61AEED0
:100C700020E030E0F0CF1F910F9108958091B301F3
:100C80008F70863020F088E191E00C94F205089591
:100C90008091B20184608093B2018091B301807829
:100CA0008093B301E091A501F091A601309709F07E
:100CB0000994089584E191E00C94F20508958091DF
:100CC0007A028F3F21F080E191E00C94F2050E94BE
:100CD000DF05613D77408105910550F08091B201BB
:100CE000803618F48CE091E0F0CF88E091E0EDCF11
:100CF00008950E94DF05613D77408105910520F44C
:100D00008091B20181FF17C080917B028F3F49F033
:100D10008091B2018E7F8093B2018CE091E00C94BF
:100D2000F2058091B201803618F488E191E0F7CFA6
:100D300088E091E0F4CF08958EE480937C0066E42F
:100D400070E080E090E00E94B00380917A008064BF
:100D500080937A0080917A0086FDFCCF2091780004
:100D60003091790050E040E064EB7BE281E190E07B
:100D70000E946B27C901089583B78E7F83BF80913E
:100D800001010E94FB0380911C018F3F21F480919F
:100D9000010180931C01089583B78E7F83BF8091EA
:100DA00000010E94FB0380911C018F3F21F4809180
:100DB000000180931C010895CF93C82F8AE892E028
:100DC0000E94BE0280917A008F7780937A002091F2
:100DD0006000CF3F09F439C034E0C39FC001112443
:100DE0008072C770C860C82B88E10FB6F894A895C8
:100DF000809360000FBEC0936000809160008065AA
:100E00008093600083B7817F846083BFF89483B749
:100E1000816083BF85B7806685BF8F7D85BF7894ED
:100E2000889583B78E7F83BFF894A89580916000E2
:100E300088618093600020936000789480917A00AC
:100E4000806880937A00CF9108950FB6F894A895A2
:100E500080916000886180936000109260000FBEF6
:100E6000D1CF8F929F92AF92BF92CF92DF92EF92AB
:100E7000FF92CF93DF936B017C012FE0C20ED11C58
:100E8000E11CF11CC1E0D0E080911C018F3F31F4E6
:100E900080E1C816D104E104F104A0F480911C01A2
:100EA0008F3F19F4C12CD12C7601C701B601DF9117
:100EB000CF91FF90EF90DF90CF90BF90AF909F9039
:100EC0008F90089589E094E0980F4E0102C0880C3D
:100ED000991C9A95E2F7B12CA12CC814D904EA0404
:100EE000FB0438F00E94DC06C818D908EA08FB08A1
:100EF000CBCF8150E8CF8F929F92AF92BF92DF927B
:100F0000EF92FF920F931F93CF93DF93D82FC42FAD
:100F1000D22E47015801F8948093010140930001BB
:100F20008F3F79F081E090E00D2E01C0880F0A9488
:100F3000EAF78CBB462F50E06CEB76E08D2F0E94D9
:100F40000E04CF3F79F081E090E00C2E01C0880FB5
:100F50000A94EAF78CBB4D2D50E06CEC76E08C2FB8
:100F60000E940E0481149104A104B10419F1C50179
:100F7000B4010E943107DF3F19F08D2F0E94FB035F
:100F8000CF3F19F08C2F0E94FB0380911C018F3FF3
:100F9000A9F080911C019FEF90931C01DF91CF91EC
:100FA0001F910F91FF90EF90DF90BF90AF909F90B7
:100FB0008F9008958FEF0E94DC06DDCF8FEFEBCF8F
:100FC0008EBD00000DB407FEFDCF8EB50895CF9203
:100FD000DF92EF92FF920F931F93CF93DF9391E0F5
:100FE0009093770290E4909376021092750210929B
:100FF0007402682F8EE792E00E94DF04C0917402B1
:10100000C13208F091C00E948B036B017C0180917A
:101010004E02811164C082E080934E0281E0809391
:101020004D028FEF80934C0210924B02C0934A0204
:10103000E4E5F2E0AAE2B2E080E0C813EFC010926B
:1010400029028091290280688093290280912802D8
:10105000813009F0E7C0109228020E948B036B01D7
:101060007C01809129028093BB0080915002909175
:101070005102A0915202B0915302892B8A2B8B2BE3
:1010800099F00E948B03009150021091510220911F
:101090005202309153026C197D098E099F0906177F
:1010A000170728073907E0F18091BC0083FDD9CFED
:1010B00085EC8093BC000E948B036B017C018091C6
:1010C0004E02823009F4B0C080914C028F3F61F132
:1010D00080914C02803241F180914C0225C0809178
:1010E000500290915102A0915202B0915302892B6B
:1010F0008A2B8B2B09F48BCF0E948B03009150021B
:101100001091510220915202309153026C197D09C5
:101110008E099F09061717072807390708F077CFA8
:1011200080914F020E946C0410927502109274021A
:101130001092770264E670E080E090E00E94B003D5
:101140000E948B036B017C0180914E0281118EC045
:1011500081E080934E0280934D029FEF90934C026A
:1011600010924B0292E090934A0280932902809160
:10117000290280688093290280912802813009F039
:10118000B5C0109228020E948B036B017C018091F4
:1011900029028093BB008091500290915102A0914E
:1011A0005202B0915302892B8A2B8B2BA1F00E9403
:1011B0008B03009150021091510220915202309104
:1011C00053026C197D098E099F0906171707280716
:1011D000390708F46CC08091BC0083FDD8CF85EC42
:1011E0008093BC000E948B036B017C0180914E02B6
:1011F000813009F47DC080914B02C3E0833010F44C
:10120000C0914B02AAE2B2E0E8E0F2E080E08C1785
:1012100009F452C09D9191938F5FF9CF91919D9365
:101220008F5F0BCF85EE45CF809150029091510298
:10123000A0915202B0915302892B8A2B8B2B09F477
:101240003ECF0E948B0300915002109151022091D9
:101250005202309153026C197D098E099F090617BD
:1012600017072807390708F02ACF5ACF8091500274
:1012700090915102A0915202B0915302892B8A2B76
:101280008B2B09F461CF0E948B03009150021091C7
:10129000510220915202309153026C197D098E093E
:1012A0009F09061717072807390708F04DCF8091C7
:1012B0004F020E946C04C0E010920702C093060225
:1012C0000E94E3036B017C012CE2C20E21E0D21EDE
:1012D000E11CF11CC33070F50E94E303C616D7066B
:1012E000E806F906B9F3D0E0C0E036C085EE78CF65
:1012F0008091500290915102A0915202B0915302FC
:10130000892B8A2B8B2B09F471CF0E948B030091C0
:1013100050021091510220915202309153026C19E7
:101320007D098E099F09061717072807390708F056
:101330005DCFBDCF8EE792E00E949F04D82F80E062
:10134000C82F8EE792E00E949F04C80FD91FCC7F60
:101350008EE792E00E949F04CE01DF91CF911F9112
:101360000F91FF90EF90DF90CF9008958091E5036B
:10137000829586958770813019F48091E8030895ED
:10138000811105C088EE93E00E947121089580E0EC
:101390000895FC0101900020E9F73197AF01481B47
:1013A000590BBC018AE892E00C94DB0185ED809337
:1013B000BC008091500290915102A0915202B091D4
:1013C00053020796A11DB11D23E0B695A7959795E9
:1013D00087952A95D1F72091BC0024FD03C0109277
:1013E0004E02089540915002509151026091520274
:1013F00070915302452B462B472B69F30097A105AB
:10140000B10541F023E02A95F1F700000197A10909
:10141000B109E1CF80914F020C946C044F925F921E
:101420006F927F928F929F92AF92BF92CF92DF92F4
:10143000EF92FF921F93CF93DF93EC01188D111160
:1014400004C089859A85892B31F0E881F981118959
:10145000112391F011E0812FDF91CF911F91FF9027
:10146000EF90DF90CF90BF90AF909F908F907F9044
:101470006F905F904F9008958A819B81039709F444
:101480004BC0CE84DF84E888F98829A13AA14BA11A
:101490005CA1C701B6010E947D2487FDDCCF2DA190
:1014A0003EA14FA158A5C701B6010E9439271816C1
:1014B00094F28F8D98A10E9428058111CBCFCE8404
:1014C000DF84E888F988898C9A8CAB8CBC8C49A421
:1014D0005AA46BA47CA4A3019201C501B4010E948B
:1014E00024269B01AC01C701B6010E9439271816BA
:1014F0000CF0B0CFA3019201C501B4010E942526D2
:101500009B01AC01C701B6010E947D24881F88277A
:10151000881F11E018279FCF20E030E0A90169A5BE
:101520007AA58BA59CA50E94392718160CF092CF9E
:101530006D8D7E8D8A899B890E94932711E0892B6E
:1015400009F089CF10E087CFE2EBF1E08081877F5F
:101550008F7E80831092AE011092AF011092B00185
:101560001092B10144E050E070E060E08AE792E060
:101570000C94A1250F931F93CF93DF938C0180E0F0
:101580006115710551F0EB0109900020E9F72197F1
:101590008C2F861B8A3108F089E1F801C381C7705E
:1015A000F8E08F9FC0011124C82BF801C383848108
:1015B0008F718483C695C695C695CA3108F0C9E176
:1015C000D0E0AE01C80107960E949C27C00FD11F32
:1015D0001F82C801DF91CF911F910F910895CF9382
:1015E000DF93FC011082118212821482158216820E
:1015F000DC0117968AE1ED0119928A95E9F782E0FC
:101600008383DF91CF910895BF92CF92DF92EF92C3
:10161000FF920F931F93CF93DF937B01042FB22E82
:1016200090E59CBD91E09DBD29980E94E007182F90
:10163000E7010150A8F0BB2051F08FEF0E94E007B6
:10164000182FE114F104A9F388832196F2CF6E01DB
:101650008FEFC81AD80A88810E94E007E601E9CF17
:10166000299A812FDF91CF911F910F91FF90EF90D9
:10167000DF90CF90BF900895CF93DF931F92CDB7A7
:10168000DEB7698320E041E0BE016F5F7F4F0E94BB
:10169000040B0F90DF91CF91089528986EE080E2BF
:1016A0000E943C0B8FE594E00197F1F7089528988C
:1016B0006CE080E20C943C0B8091B301982F907702
:1016C000903759F0982F92959F709F5F97709295E1
:1016D000907F8F78892B8093B3018091B2018B7FAB
:1016E0008F7E8093B2010C94570B6FE080E20E94D2
:1016F0003C0B609107016F3F19F08AE20E943C0B9E
:10170000289A089521E041E070E060E00C94040B19
:1017100020E040E070E060E00C94040BFF920F9337
:101720001F93CF93DF9390917A02FB0190834381C3
:10173000C0E242FD08C04695469546954A3108F0FC
:1017400049E1C7E0C40F90917D02D1E090FD03C054
:101750008F3F09F0D0E06115710509F44CC08B0191
:10176000F82E28988BE190E00197F1F76EE080E287
:101770000E943C0B83E190E00197F1F76F2D8AE224
:101780000E943C0B6F2D80E30E943C0B81EE0E9477
:10179000880BDD2321F060E584E20E943C0B20E011
:1017A0004C2FB80180EA0E94040B289A10E000E058
:1017B0008FEF0E94880B807339F40F3F100721F0E0
:1017C000A8950F5F1F4FF4CF289860E787E20E942B
:1017D0003C0BC82F84FF03C081EE0E94880BDD23E1
:1017E00021F06FE584E20E943C0B0E94750BC5FF5F
:1017F00003C0D1E001C0D0E08D2FDF91CF911F91C8
:101800000F91FF9008950F931F93CF938C01FC01CC
:1018100082819091B20190FF04C08F3F51F5CFEFCC
:1018200004C0811116C0C0917B02B8018C2F0E94A8
:101830008E0B90917B029C1313C09091B301811188
:1018400013C021E0290F2F70907F922B9093B3014A
:1018500007C08F3F21F3B8010E948E0B882319F334
:10186000CF911F910F910895907F9093B30181E0E4
:10187000F7CF80E0F5CF2091B20122FD0C94030C4C
:1018800080E008950F931F93CF93DF93182FEA0101
:10189000022F262F50E040E0682F80E00E94BA011E
:1018A0001F3F11F4C5E7D1E0BE010E94BA0ADF91E3
:1018B000CF911F910F910C943B0C0F9380917A0262
:1018C0008F3F79F400E023E043E050E06FEF80E0E9
:1018D0000E94BA0162EA71E00E94BA0A0F910C9468
:1018E000030C0F9108950F93E2EBF1E08081897F63
:1018F00081608083EAE7F2E08FEF8283818300E0FA
:1019000027E043E050E06FEF0E94BA0162EA71E025
:101910000E94BA0A0F910C94030CCF93209A219A3B
:101920002898299ACFB7F8948091A401811127C0F3
:10193000EAE4F2E08491EEE5F2E09491E82FF0E041
:10194000EE0FFF1FE45DFD4FA591B491EC91E923EB
:1019500021F461E08AE00E94110361E08AE00E94C4
:101960003F038CB580618CBD8CB580648CBD61E01B
:101970008DE00E943F0361E08BE00E943F03809175
:10198000A4018F5F8093A401CFBF0E944D0B63E041
:1019900083E20E943C0B6FE584E20E943C0B6CE406
:1019A00085E20E943C0B65E286E20E943C0B64E00B
:1019B0008DE30E943C0B8DE10E94820B843041F04C
:1019C00063E780E50E943C0B64E08DE30E943C0BE2
:1019D00086E00E94820B853209F04DC085E00E94AE
:1019E000820B8C3409F047C062E082E20E943C0B1B
:1019F00060E081E20E943C0B63E08CE30E943C0BC0
:101A00008FEF8093020120E045E062E071E08BE21D
:101A10000E94040B20E045E062E071E08AE20E944F
:101A2000040B20E045E062E071E080E30E94040BDB
:101A300082EE0E94880B81EE0E94880B60E787E2AD
:101A40000E943C0B8091B20180618093B201809131
:101A50007D028E7F80937D0287E180937A0267E129
:101A600090E080E00E94C125C0917A02CF3F41F40E
:101A700088E191E002C088E091E0CF910C94F205FA
:101A80008FEF8C0F8E3FB8F7C093070163E082E2BF
:101A90000E943C0B61E081E20E943C0B0E94750BAE
:101AA0006C2F90E080E00E94C125E2CFCF92DF92C0
:101AB000EF92FF920F931F93CF93DF93CDB7DEB7D3
:101AC000C857D1090FB6F894DEBF0FBECDBF0E9434
:101AD000E3039B01AC0119A28E010F5D1F4F8AE049
:101AE000C82ED12CE12CF12CCA01B901A701960115
:101AF0000E946B27605DF80162938F01211531050B
:101B00004105510589F7309719F0CF010E94C909A5
:101B10008BE791E00E94C9099E012B573F4FCD579B
:101B2000DF4F48815981C358D04068E770E0CE014B
:101B300001960E94D321CE0101960E94C9098AE82C
:101B400092E00E94BE02C858DF4F0FB6F894DEBF85
:101B50000FBECDBFDF91CF911F910F91FF90EF90FE
:101B6000DF90CF900895CF92DF92EF92FF920F9384
:101B70001F93CF93DF93EC016A017B01AB019601C8
:101B8000CB01B6010E943E278111BDC00C851D8589
:101B90000115110561F0A70196016C897D898E8977
:101BA0009F890E9425266C8B7D8B8E8B9F8B6985F0
:101BB0007A856F5F7F4F7A8769870130110509F059
:101BC000ABC090E080E00E9482249B01AC016C8954
:101BD0007D898E899F890E9491266E877F87888B59
:101BE000998B8A819B81892B01F56E857F858889F8
:101BF00099890E9403277F936F938E811F928F9301
:101C00008C811F928F9388858F938F818F938EE025
:101C100092E09F938F930E94560D8DB79EB70A96C0
:101C20000FB6F8949EBF0FBE8DBF8A819B8101972E
:101C300099F5CE84DF84E888F98820E030E048EC2C
:101C400052E4C701B6010E94E3240E940327CB019E
:101C500064E670E00E9457279F938F93C701B601F7
:101C60000E9403277F936F938E811F928F938C81A5
:101C70001F928F9388858F938F818F938BEE91E046
:101C80009F938F930E94560D8DB79EB70C960FB6FB
:101C9000F8949EBF0FBE8DBF8A819B81029799F5F4
:101CA000CE84DF84E888F98820E030E44CE156E413
:101CB000C701B6010E94E3240E940327CB0160E123
:101CC00077E20E9457279F938F93C701B6010E9426
:101CD00003277F936F938E811F928F938C811F9226
:101CE0008F9388858F938F818F9388EC91E09F935A
:101CF0008F930E94560D8DB79EB70C960FB6F89431
:101D00009EBF0FBE8DBFDF91CF911F910F91FF90AE
:101D1000EF90DF90CF9008950230110549F48C893F
:101D20009D89AE89BF898E879F87A88BB98B59CF34
:101D3000012B09F056CFCE86DF86E88AF98A51CF8B
:101D4000CF92DF92EF92FF92CF93DF93EB018E81E0
:101D500081113FC083EE0E94E707BC0190E080E064
:101D60000E9482246B017C0120E030E0A9010E94E6
:101D70007D24882349F122E538EB4FE25BE3C7017C
:101D8000B6010E94E32426E636E64BE352E40E94C5
:101D9000242620917D0321110CC026E636E646EE6E
:101DA0005FE30E94E32420E030E040E052E40E9440
:101DB0002526AB01BC01CE01DF91CF91FF90EF90C2
:101DC000DF90CF900C94B30D60E070E888E893EC5E
:101DD000E0CF813019F585EE0E94E707BC0190E065
:101DE00080E00E9482246B017C0120E030E0A901A8
:101DF0000E947D2440E050E0BA018823E1F220E017
:101E000030E04AEF5AE3C701B6010E94E32420E024
:101E100030E040EC50E40E942426CBCFDF91CF91FC
:101E2000FF90EF90DF90CF900895FF920F931F9354
:101E3000CF93DF93082F80932101C82F880FDD0BEC
:101E4000FE01E859FD4F8491FE01EC5AFD4FF490DC
:101E5000FE01E05CFD4F1491112349F181110E94B4
:101E6000E802E12FF0E0EE0FFF1FE955FE4FA591CC
:101E7000B491EC91FE2281E090E009F480E080933F
:101E8000A7019F938F93DF930F9381EB91E09F9333
:101E90008F930E94560D0F900F900F900F900F9000
:101EA0000F90DF91CF911F910F91FF90089580E0E7
:101EB00090E0E5CF82E00C94150F83E00C94150FB1
:101EC000AF92BF92CF92DF92EF92FF920F931F9348
:101ED000CF93DF938AEF90E09F938F930E94560DEC
:101EE0000E94641200E02BE043E050E06FEF80E0DE
:101EF0000E94BA016DE771E00E94BA0A0E943B0C91
:101F00002CE043E050E06FEF80E00E94BA0167E808
:101F100071E00E94BA0A0E943B0C0E946412009178
:101F20007603109177030F900F9020EEA22E20E001
:101F3000B22E2091780330917903220F331F8091C4
:101F4000760390917703820F931F08171907E9F121
:101F5000F801C190D1908F01F601E280F380F60183
:101F600024813581220F331F82819381820F931F39
:101F7000E816F90639F1F701C191D1917F018E81FF
:101F80001F928F938D811F928F938C811F928F93BD
:101F900088858F938F818F93BF92AF920E94560D49
:101FA0004F8158856D8170E0209180038C810E9463
:101FB000420C8DB79EB70A960FB6F8949EBF0FBE1F
:101FC0008DBFCDCF0E946412B4CF0E9464120E94D4
:101FD0006412DF91CF911F910F91FF90EF90DF90EE
:101FE000CF90BF90AF900C9464120F9300E02FE05D
:101FF00043E050E06FEF80E00E94BA0162EA71E0D6
:102000000E94BA0AE0ECF3E08381877080618383E9
:1020100084818F71806C848381E087831086CF01F7
:102020000E943B0C8FE00E94061220E042EA51E041
:1020300061E170E08FEF0E94420C26E043E050E047
:102040006FEF80E00E94BA0160917B020E94C80598
:102050000E943B0C86E00E9406120F910C94600FC8
:102060002F923F924F925F926F927F928F929F92A8
:10207000AF92BF92CF92DF92EF92FF920F931F9396
:10208000CF93DF93D6E080E0E82E80E0F82E90E05A
:10209000C92E90E0D92E44244A9422E0522E23E007
:1020A000622E752C212C33243A9487E10E94820BF6
:1020B00080FD93C1D15009F490C121E041E070E06E
:1020C00060E080E60E94040BC82F813220F082EE8F
:1020D0000E94880BC0E021E04C2F61EE73E081E6A6
:1020E0000E94040B60E487E20E943C0B8091E403B1
:1020F000982F93709230C9F6E82FE695E695E6950D
:10210000EA3108F0E9E182FF60C089E1895FC81324
:10211000CCCF8091E503082F0770C091E6031091A2
:10212000E2033091E1032091E3034091B301406861
:102130004093B30140917A02241325C1F0E0EF519E
:10214000FC4F178283FF15C091E2E1EEF3E0A0ECB3
:10215000B3E001900D929A95E1F7877E80618093BC
:10216000C4032093C1031093C20380EC93E00E9448
:102170003B0C9091E50394FDFAC0033009F0F7C0E1
:102180008091E60321EF280F233008F48ECFC4306E
:1021900009F48BCFC830D9F4C091B201C0FF85CF0C
:1021A0000E94B6098F3F09F480CF8F5F8F3F09F4FB
:1021B0007CCF90917C02891708F077CFC1FD75CF55
:1021C00080937C0210937B0270CF8E2F9FCFC831FB
:1021D00061F400E029E143E050E06FEF812F0E94BD
:1021E000BA0161E00E94C80527C0C93161F480913D
:1021F000B20183FF5ACF877F8093B2010E94B60954
:102200008093B40152CFCE3109F44FCFCD31B9F420
:1022100000E02FE143E050E06FEF80E00E94BA0160
:10222000FC01838187708061838384818F718064E6
:10223000848330862782CF010E94030C36CF209101
:10224000E20321119DC08D3059F488E198E00FB66A
:10225000F894A895809360000FBE90936000FFCF24
:102260008B3169F40E94B60991E0811101C090E0C0
:102270008091790290FB80F98093790216CF8630A5
:1022800099F49091E80381E0992319F09D3409F0C5
:1022900080E08093780241E050E063E071E088E7FD
:1022A00092E00E94B12501CF833119F40E94F50F0D
:1022B000FCCE8231E9F40E94DF054B015C0100E0B5
:1022C00026E143E050E06FEF80E00E94BA01FC019C
:1022D000838187708062838384818F71806A848325
:1022E00087829086A186B286CF010E943B0CDDCE0C
:1022F0008230B1F400E022E043E050E06FEF80E094
:102300000E94BA01FC01838187708062838384818B
:102310008F71806A84834782508661867286E4CF9B
:102320008130F9F4C114D10409F4BFCE9295969589
:102330009770953059F46091E8037091E9038091AA
:10234000EA039091EB030E940000AFCE911105C00B
:1023500088EE93E00E948F21F6CF60E070E0CB0121
:10236000F2CF8A3009F4A1CE8C3109F49ECEE1146B
:10237000F10409F49ACE81EE93E00E94000095CE1C
:102380008A31A9F792CE2F3F09F08FCE033001F5A5
:102390008091B20182FF03C0C73009F486CEC431F8
:1023A00009F083CE80917B0238137FCE0E94E30335
:1023B0007370882799270E94B00300E025E143E06D
:1023C00050E06FEF812F0E94BA0160917B020ACF2B
:1023D00080917B02381369CECACFDF91CF911F91D4
:1023E0000F91FF90EF90DF90CF90BF90AF909F90B4
:1023F0008F907F906F905F904F903F902F900895B7
:102400008091B20184FD0C9430100895CF92DF9238
:10241000EF92FF92CF93DF93D82F0E94E3036B01DB
:102420007C018091E50387608093E503C0E00E9412
:10243000E3036C197D098E099F09603D7740810592
:10244000910590F4C11110C0A8950E94D4050E9476
:1024500000128091E5038770833049F7C1E08091D5
:10246000E6038D13E3CFE3CF8C2FDF91CF91FF9065
:10247000EF90DF90CF9008958F929F92AF92BF928E
:10248000CF92DF92EF92FF924B015C010E94E30337
:102490006B017C010E94E3036C197D098E099F0981
:1024A000681579058A059B0530F4A8950E94D40526
:1024B0000E940012EFCFFF90EF90DF90CF90BF907F
:1024C000AF909F908F9008956091A9037091AA0397
:1024D0006115710521F090E080E00C943C120895A4
:1024E000CF93DF938093880360938703D0E0C0E0AD
:1024F000809181038C171D06F1F0ECF02091800390
:1025000080917A028093830380918603807F81602B
:1025100098E0299F90011124822B8093860380915B
:10252000790280FF04C082E893E00E943B0C0E9485
:1025300064122196DDCFDF91CF9108958F929F9203
:10254000AF92BF92CF92DF92EF92FF920F931F93C1
:10255000CF93DF93EC018B018EA1811104C08FA179
:102560008F3F09F06EC00E949C06BC0190E080E0A5
:102570000E94822420E030E04AE754E40E94912641
:102580002CA53DA54EA55FA50E94E3244B015C014F
:10259000BC01A401C8010E94B30D88A9882309F4D5
:1025A0007DC0C8010E940E0A882309F477C088A95B
:1025B0008823C9F1CE8CDF8CE8A0F9A0A701960191
:1025C000C501B4010E9424264B015C01A7019601BC
:1025D0006AA17BA18CA19DA10E9424269B01AC0134
:1025E000C501B4010E94912620E030E048EC52E49D
:1025F0000E94E3240E940327EB0177FF02C0D0E092
:10260000C0E000E020E043E050E06FEF80E00E9497
:10261000BA01BE01C536D10514F064E670E00E942F
:10262000C8050E943B0CDF91CF911F910F91FF9045
:10263000EF90DF90CF90BF90AF909F908F900C94D1
:1026400064128091B6038330C9F083E08093260141
:1026500068EC70E080E090E00E943C1285E0E82E9B
:10266000F12C8FEF0E94700362E370E080E090E055
:102670000E943C1281E0E81AF10899F78FA10E94AC
:102680007003BC01990F880B990B0E94842428A524
:1026900039A54AA55BA50E94E32472CFDF91CF91B3
:1026A0001F910F91FF90EF90DF90CF90BF90AF9070
:1026B0009F908F9008953F924F925F926F927F927A
:1026C0008F929F92AF92BF92CF92DF92EF92FF9242
:1026D0000F931F93CF93DF932B013C01D42ED22F66
:1026E000302ECE2D8091B20153014B0182FD1CC0D2
:1026F0000E94E3034B015C0180E090E0DC0120914B
:10270000B20122FD31C084159505A605B70588F5EF
:10271000803D27E09207A105B105C0F053014201B9
:10272000881A990AAA0ABB0ADD2009F446C0D50115
:10273000C4010197A109B109833F9140A105B105E9
:10274000D0F4C301B2010E943C1213C0A8950E94AC
:10275000D4050E9400120E94E303DC01CB0188191A
:102760009909AA09BB09CBCF84159505A605B7051C
:10277000A8F2CEEF4FC000E020E243E050E06FEF60
:1027800080E00E94BA01FC018381877080628383AC
:1027900084818F71806A848384EF91E0A0E0B0E04F
:1027A00087839087A187B287CF010E943B0C64EF9B
:1027B00071E080E090E00E943C120E94570BDF3FE6
:1027C000E1F1850174012C2D4C2FCF3F11F420E055
:1027D0004FEF632D8D2F0E947B07C82F0E944D0B5A
:1027E000DD20C1F000E021E243E050E06FEF80E047
:1027F0000E94BA01FC018381877080628383848197
:102800008F71806A848387829086A186B286CF0189
:102810000E943B0C8C2FDF91CF911F910F91FF9065
:10282000EF90DF90CF90BF90AF909F908F907F9070
:102830006F905F904F903F900895CF3FC1F4811407
:102840009104A104B10479F0C501B4010E943107DB
:1028500080911C01CFEF8F3F11F0C0911C018FEFD1
:1028600080931C01BBCF8FEF0E94DC06F1CFCEEF2F
:10287000B5CFCF92EF920F9320917E0330917F03DB
:102880002130310549F42091A703222329F0693C26
:1028900071058105910528F40F91EF90CF900C946C
:1028A0003C12CC24CA94EE24EA940FEF2FEF40E0C0
:1028B0000E945B130F91EF90CF9008955F926F92FB
:1028C0007F928F929F92AF92BF92CF92DF92EF92C0
:1028D000FF920F931F93CF93DF938C01DC015496EB
:1028E0008D919C910E942805811105C0F801818974
:1028F000882309F441C0D8011296ED90FC90F801AC
:1029000024813581220F331F82819381820F931F8F
:10291000E816F90629F1D701CD90DD907D01D0E0D0
:10292000C0E0F80183859485C817D90740F7019066
:10293000F081E02D0280F381E02DB601C8010995F8
:10294000D8011D966D917D918D919C915097611547
:1029500071058105910511F00E9439142196E1CF8E
:10296000848995890E942805882331F0D8015496DE
:102970008D919C910E946205F801828993890E9441
:102980002805811106C0D80151968C91882309F43D
:1029900000C1F801E280F38092EAC92E91E0D92EBD
:1029A000D80114962D913C911597220F331F129642
:1029B0008D919C911397820F931FE816F90609F4E5
:1029C000D4C0F701C191D1917F018DA59EA5892B1E
:1029D00041F48E859F85A889B989898F9A8FAB8F9D
:1029E000BC8FCE010E940E0A8823D1F28F8D98A150
:1029F0000E942805882321F08F8D98A10E946205EE
:102A00008A819B818330910589F18E849F84A88877
:102A1000B988898E9A8EAB8EBC8E892B59F56E80C3
:102A20007C8082E893E00E94EF0A809185038770A2
:102A3000806280938503809186038F718068809384
:102A40008603C501B4010E940327072E000C880BE2
:102A5000990B6093890370938A0380938B039093FF
:102A60008C03662D872D0E94701204C08A899B8971
:102A70009E8F8D8F8A819B81019721F55B848E8447
:102A80009F84A888B9886E807C8082E893E00E9449
:102A9000EF0A809185038770886280938503809117
:102AA0008603806E809386038092890390928A03C6
:102AB000A0928B03B0928C0350928D03662D872DCC
:102AC0000E9470128A819B81029721F55B848E841B
:102AD0009F84A888B9886E807C8082E893E00E94F9
:102AE000EF0A8091850387708862809385038091C7
:102AF0008603806E809386038092890390928A0376
:102B0000A0928B03B0928C0350928D03662D872D7B
:102B10000E9470128A819B81039789F48A889B881E
:102B2000AE80BC8082E893E00E94EF0AB40182E8A4
:102B300093E00E94BA0A6A2D8B2D0E9470128A813E
:102B40009B81039779F08C859D85892B41F01C8AA8
:102B50001D8A1E8A1F8A1E861F86188A198A1A864F
:102B600019861ECFDB8ACA8AFACF52968D919C9124
:102B70000E942805882329F0F801828993890E9400
:102B80006205D80151968C915197882311F0519686
:102B90001C92DF91CF911F910F91FF90EF90DF90EA
:102BA000CF90BF90AF909F908F907F906F905F90ED
:102BB0000895AF92BF92CF92DF92EF92FF920F9360
:102BC0001F93CF93DF93E091B003F091B103C091D5
:102BD000B203D091B303CC0FDD1F5E01AE0EBF1E5A
:102BE000AE16BF0659F101911191D8018D919C91BA
:102BF0000197B1F780917E0390917F03019781F750
:102C00002091A3033091A4034091A5035091A60302
:102C1000A8EEB3E00E94D325E801CE80DF80E884EF
:102C2000F984A7019601261B370B480B590BDA01D3
:102C3000C9018E839F83A887B987D2CF009176037D
:102C400010917703FF24FA9420917803309179034F
:102C5000220F331F8091760390917703820F931F89
:102C600008171907E1F1F801C191D1918F0182E8AC
:102C700093E00E94EF0A809121018F3F61F19E89CC
:102C80008913E2CF8D8D882339F08F898330D1F479
:102C90008091A7018130E1F4E881F9810680F78114
:102CA000E02DCE010995688D798D8A8D9B8D6115FA
:102CB00071058105910511F00E943914CE010E9421
:102CC0005E1406C0823041F78091A701882321F36A
:102CD000F0922101B9CFCE010E945E14B5CF809150
:102CE0007E0390917F03019709F046C0D090A30323
:102CF000E090A403F090A5031091A6031F93FF9208
:102D0000EF92DF9283E191E09F938F930E94560DA3
:102D10000091B7030F900F900F900F900F900F90AE
:102D2000EFEFF0E00F3F11F0E1E0F0E0D091B803F9
:102D3000C091BB03A8EEB3E02D2D3E2D4F2D512F9A
:102D40000E94D325DF3F71F5CC24CA94EE24EA9487
:102D5000EF3FF10561F5CC24CA94EE24EA940FEF1D
:102D60002FEF4C2F0E945B1385E091E09F938F9390
:102D70000E94560D0F900F90DF91CF911F910F91F0
:102D8000FF90EF90DF90CF90BF90AF900895CC244C
:102D9000CA94EE24EA940D2F20E00AC0892BB1F4E6
:102DA00082E012C0EF3FF10591F3CD2EE12C2E2FE2
:102DB0004C2F0E945B13082E000C990B97FDD4CF6B
:102DC0008130910559F783E00E94150F2091A803E7
:102DD00080912101082E000C990B2817190621F665
:102DE00010927F0310927E03BFCF0F93CF938091F9
:102DF000790281FD21C00E94F50F809179028160E6
:102E000080937902C4E000E02AE143E050E06FEFF4
:102E100080E00E94BA0162E00E94C8050E943B0C5B
:102E20008BE10E940612811102C0C15061F78091AE
:102E30007902826080937902CF910F910895CF92A9
:102E4000DF92EF92FF920F931F93CF93DF9300D007
:102E5000CDB7DEB780917C03882321F08091780282
:102E600080937D0380917D031F928F9380917A02DE
:102E70001F928F938DEC90E09F938F930E94560D3D
:102E8000E0907603F09077030F900F900F900F90E3
:102E90000F900F90CC24C394D12C209178033091C3
:102EA0007903220F331F8091760390917703820F6D
:102EB000931FE816F90609F45BC0D7010D911D9127
:102EC0007D01D8015296ED91FC9180819181892BF1
:102ED00071F4D182C0828091AB039091AC03A09138
:102EE000AD03B091AE0382839383A483B583D801ED
:102EF00054962D913C91D9018D919C911197892BDC
:102F000069F4808191818D939C9342815381648186
:102F10007581F9014283538364837583D801ED91F0
:102F2000FC910190F081E02DC8010995F80182899A
:102F300093890E946205D80154968D919C910E94BC
:102F40006205F80187898F3F09F4A7CF9285968B98
:102F5000248D933029F48093B7032093B9039DCF38
:102F6000923009F09ACF8093B8032093BA0395CF9B
:102F70008091A803833009F0ECC082E08093B7030E
:102F800081E08093B9038091B7038F3F79F160E0CE
:102F900083E00E943F036091B90367FD03C083E0B3
:102FA0000E94110380917E0390917F03019759F055
:102FB0008091B7032DE53FE0309325012093240154
:102FC00090E00E94EF038091B7031F928F931F92AE
:102FD00083E08F938DE990E09F938F930E94560D2D
:102FE0000F900F900F900F900F900F908091B8035B
:102FF0008F3F61F160E082E00E943F036091BA037D
:1030000067FD03C082E00E94110380917E039091CE
:103010007F03019741F04091B80350E06AE57FE0FB
:1030200080E00E940E048091B8031F928F931F923C
:1030300082E08F9387E890E09F938F930E94560DD4
:103040000F900F900F900F900F900F9080910204AF
:1030500090910304009711F486E094E09E012F5FA5
:103060003F4F7901E81AF90AF894409160003091D5
:10307000800020918100909182008FEF86BB10929A
:10308000850010928400109280001092820088E1E6
:103090005DE00FB6F894A895809360000FBE509342
:1030A000600080916000806480936000A89585E056
:1030B000809381008091600087FFFCCF1092810097
:1030C000A8958091600088618093600040936000C3
:1030D00078940091840010918500309380002093B3
:1030E0008100909382000E949C06D82EC92EFF92E8
:1030F000EF9230E020E0C901B8012BE0660F771FA6
:10310000881F991F2A95D1F720EA36E841E050E060
:103110000E946B27C9016AE070E00E9443277F93F9
:103120006F93CF92DF9283EB90E09F938F930E94F7
:10313000560D0FB6F894DEBF0FBECDBF0F900F90A7
:10314000DF91CF911F910F91FF90EF90DF90CF9083
:103150000895823009F017CF8093B80381E08093FF
:10316000BA0311CF4CE251E060E070E04093AB0352
:103170005093AC036093AD037093AE0381E090E095
:1031800090937F0380937E034093A3035093A40303
:103190006093A5037093A603E0915703F091580341
:1031A0009183808380E498E3A0E0B0E082839383FE
:1031B000A483B58380912B0390912C0318161906D4
:1031C00014F490E080E0880F991F2091290330913A
:1031D0002A03820F931FDC01ED91FC91878D90A152
:1031E00021E030E0FC013183208348E057E060E0DB
:1031F00070E042835383648375830E94620586E690
:1032000096E6A6E0B0E48093630390936403A093F2
:103210006503B093660386E696E6A6E2B0E4809383
:10322000670390936803A0936903B0936A03809146
:10323000AF031F928F9385E790E09F938F930E9437
:10324000560D61E08091AF030E943F0361E08091E1
:10325000AF030E94110388E690E09F938F930E9432
:10326000560D0F900F900F900F900F900F900895A4
:103270001F920F920FB60F9211242F933F934F93EB
:103280005F936F937F938F939F93AF93BF93EF93CE
:10329000FF938AE892E00E944F02FF91EF91BF9165
:1032A000AF919F918F917F916F915F914F913F91DE
:1032B0002F910F900FBE0F901F9018951F920F9295
:1032C0000FB60F9211242F938F939F93EF93FF9339
:1032D000E0919A02F0919B028081E091A002F0912E
:1032E000A10282FD1BC090818091A3028F5F8F732A
:1032F0002091A402821741F0E091A302F0E0E6578A
:10330000FD4F958F8093A302FF91EF919F918F9135
:103310002F910F900FBE0F901F9018958081F4CFC2
:103320001F920F920FB60F9211242F933F938F93FA
:103330009F93AF93BF938091FE019091FF01A09165
:103340000002B09101023091FD0120E3230F2D37DF
:1033500058F54096A11DB11D2093FD018093FE01FB
:103360009093FF01A0930002B093010280910202AA
:1033700090910302A0910402B09105020196A11D53
:10338000B11D8093020290930302A0930402B093B4
:103390000502BF91AF919F918F913F912F910F9017
:1033A0000FBE0F901F90189523EB230F4196A11D80
:1033B000B11DD2CF1F920F920FB60F9211242F93EF
:1033C0003F934F935F936F937F938F939F93AF93AD
:1033D000BF93EF93FF93E0912401F09125010995AC
:1033E000FF91EF91BF91AF919F918F917F916F91DD
:1033F0005F914F913F912F910F900FBE0F901F90B3
:1034000018951F920F920FB60F9211242F933F938E
:103410004F935F936F937F938F939F93AF93BF93DC
:10342000EF93FF93E0912201F09123010995FF9121
:10343000EF91BF91AF919F918F917F916F915F912C
:103440004F913F912F910F900FBE0F901F901895A5
:103450001F920F920FB60F9211242F933F934F9309
:103460005F936F937F938F939F93AF93BF93EF93EC
:10347000FF938091B900887F803609F44AC0F0F547
:10348000883209F4A7C018F5803109F49BC0B8F45C
:10349000882309F4F9C0883009F494C0FF91EF91B2
:1034A000BF91AF919F918F917F916F915F914F915C
:1034B0003F912F910F900FBE0F901F90189588315C
:1034C00009F488C0803251F780934C0214C08034D4
:1034D00009F49DC040F48033B9F38833F9F6809342
:1034E0004C0285ECB0C0803509F485C0883509F4FC
:1034F00096C0883499F60E94D609D0CF883909F44D
:103500008CC038F5883729F050F4883611F08037B0
:1035100029F683E080934E021092FC0157C0883850
:1035200009F47BC0803919F0803809F0B7CF809159
:10353000FC01803208F071C0E091FC0181E08E0F47
:103540008093FC018091BB00F0E0E452FE4F808349
:103550003DC0803B39F0E0F4803A09F479C0883A04
:1035600009F09CCF84E080934E021092D901109212
:10357000D801E091D601F091D70109958091D80149
:1035800081110FC081E08093D8011092B60109C06B
:10359000803C09F4A6CF883C09F4A3CF883B09F00E
:1035A0007DCFE091D90181E08E0F8093D901F0E0C9
:1035B000EA54FE4F80818093BB009091D9018091A5
:1035C000D80129C0809129028093BB0085EC8093AB
:1035D000BC0064CF90914B0280914A02981758F535
:1035E000E0914B0281E08E0F80934B02F0E0E65DAC
:1035F000FD4F8081E9CFE0914B0281E08E0F8093F7
:103600004B028091BB00F0E0E65DFD4F808390911E
:103610004B0280914A029817C8F285E8D8CFE09112
:103620004B0281E08E0F80934B028091BB00F0E053
:10363000E65DFD4F808380914D0281115CCF81E07A
:103640008093280284EA8093BC0010924E0226CF19
:1036500085EC8093BC0010924E028091FC01803278
:1036600030F4E091FC01F0E0E452FE4F10826091F2
:10367000FC0170E0E091DA01F091DB018CED91E06A
:1036800009951092FC010ACF10924C0234CF1F9280
:103690000F920FB60F9211240F900FBE0F901F9034
:1036A0001895DF92EF92FF920F931F93CF93DF93C2
:1036B000D82EC0917603D0917703009178031091B2
:1036C0007903000F111F0C0F1D1F0C171D0789F028
:1036D000E990F9906D2DC7010E948705892BA9F308
:1036E000C701DF91CF911F910F91FF90EF90DF9075
:1036F0000895F12CE12CF4CF0F931F93CF93DF9318
:10370000EC017D836C83CB01880F991F0E944C20B4
:103710008C016A817B81FC018881998130E020E005
:103720002617370764F4D901AA0FBB1FA80FB91FCA
:103730004D915C91419351932F5F3F4FF1CF009793
:1037400011F00E94E82008831983DF91CF911F9127
:103750000F910895EF92FF920F931F93CF93DF93F2
:10376000EC01198218821A821B821C821D821E8221
:103770001F82188619861A860091B2031091B3032E
:103780008091B4039091B5030817190761F5C8013A
:1037900001969093B5038093B403811520E49207BA
:1037A000B8F4880F991F0E944C207C018091B003CF
:1037B0009091B103DC01F70130E020E020173107E0
:1037C00054F44D915D91419351932F5F3F4FF6CF4C
:1037D0008FEF9FEFE8CF009711F00E94E820E09272
:1037E000B003F092B1038091B2039091B3039C01B6
:1037F000220F331FE091B003F091B103E20FF31FEA
:10380000D183C08301969093B3038093B203DF9179
:10381000CF911F910F91FF90EF900895EF92FF923B
:103820000F931F93CF93DF93EC0181E391E0998392
:1038300088831B821A821D821C821F821E8282EA5A
:1038400091E09987888781E090E09C878B871D862F
:103850001E861F86188A91E0998B8FEF8E8B8F8B37
:10386000188E198E1A8E1B8E8C8F9D8F8A878BE0F7
:1038700090E00E944C208C010E94AA1B1B8B0A8B9B
:103880008BE090E00E944C208C010E94AA1B1D8BB3
:103890000C8B009178031091790380917A039091B9
:1038A0007B030817190761F5C801019690937B0304
:1038B00080937A03811520E49207B8F4880F991F4A
:1038C0000E944C207C018091760390917703DC016B
:1038D000F70130E020E02017310754F44D915D915D
:1038E000419351932F5F3F4FF6CF8FEF9FEFE8CF7C
:1038F000009711F00E94E820E0927603F09277039F
:1039000080917803909179039C01220F331FE091FD
:103910007603F0917703E20FF31FD183C083019602
:103920009093790380937803DF91CF911F910F914A
:10393000FF90EF9008957F928F929F92AF92BF92E7
:10394000CF92DF92EF92FF920F931F93CF93DF936B
:10395000EC016B01742E122F87E18D8380E38E833F
:1039600082EA91E098878F831A861986AA24A39405
:10397000B12CBD86AC861E861F86188A198A9B8B41
:103980008A8B1C8A1D8A1E8A1F8A188E198E1A8E8F
:103990001B8E1C8E9E8F8D8F8BE090E00E944C20A2
:1039A0004C010E94AA1B98A28F8E8FEF9FEFAFE76A
:1039B000BFEF89A39AA3ABA3BCA38FEF9FEFAFE7A1
:1039C000BFE78DA39EA3AFA3B8A719A61AA61BA6EF
:1039D0001CA6BEA6ADA6D982C882BB82AA8282E0FE
:1039E0008B877C821D830E83F886EF82D601149626
:1039F0000D911C91159716968D919C91179708170C
:103A0000190779F5C801019617969C938E9316971E
:103A10008115B0E49B07D8F4880F991F0E944C20B1
:103A20005C01FC01D60112968D919C9130E020E062
:103A3000201731077CF4D901AA0FBB1FA80FB91FAB
:103A40004D915C91419351932F5F3F4FF1CF8FEF99
:103A50009FEFE4CF009711F00E94E820F601A282C8
:103A6000B382D60114968D919C9115979C01220FDB
:103A7000331F1296ED91FC911397E20FF31FD18340
:103A8000C083019615969C938E931497DF91CF91E6
:103A90001F910F91FF90EF90DF90CF90BF90AF906C
:103AA0009F908F907F900895EF92FF920F931F93B6
:103AB000CF93DF93CDB7DEB7A1970FB6F894DEBFF3
:103AC0000FBECDBF10928D0210928C0288EE93E053
:103AD000A0E0B0E080938E0290938F02A0939002BA
:103AE000B09391022DE331E030938B0220938A0250
:103AF00025EC30E0309397022093960224EC30E0DE
:103B0000309399022093980220EC30E030939B028E
:103B100020939A0221EC30E030939D0220939C0286
:103B200022EC30E030939F0220939E0226EC30E09E
:103B30003093A1022093A0021092A3021092A4023B
:103B40001092A5021092A602109281021092800299
:103B50008093820290938302A0938402B0938502A3
:103B60008FE491E090937F0280937E0281EE93E058
:103B70000E94EF0A80EC93E00E94EF0A0E94E303A8
:103B80006093BC037093BD038093BE039093BF0307
:103B900010927703109276031092790310927803B3
:103BA00010927B0310927A0311E010937C03109320
:103BB0007D0310927F0310927E0310928003109376
:103BC000810382E893E00E94EF0A1092A30310920F
:103BD000A4031092A5031092A6031093A7030FEF5E
:103BE0000093A8031092AA031092A90388E592E01B
:103BF000A0E0B0E08093AB039093AC03A093AD033F
:103C0000B093AE030093AF031092B1031092B003D0
:103C10001092B3031092B2031092B5031092B40342
:103C20001093B6030093B7030093B8030093B9034E
:103C30000093BA031093BB03CE0101960E94EF0AD2
:103C400081E2FE013196A2E8B3E001900D928A95DF
:103C5000E1F70E9493018DEB92E09F938F930E9476
:103C6000560D80EA92E09F938F930E94560D8CE749
:103C700092E09F938F930E94560D85E493E00E94FB
:103C80000E1C8DE691E0909346038093450386E6F3
:103C900096E6A6E2B0E48093630390936403A09356
:103CA0006503B093660383E393E3A3E5B0E48093F5
:103CB000670390936803A0936903B0936A0310931A
:103CC0006B0300936C0389E097E6ACE5BBE380935C
:103CD0006D0390936E03A0936F03B093700380E025
:103CE00090E0A0E8BFE38093710390937203A093E8
:103CF0007303B0937403109375038CE891E0909371
:103D00004E0380934D0361E070E087E493E00E94EE
:103D10007C1B8FE290E00E944C20E0904D03F090DD
:103D20004E0306E22EE149EC65E473E00E949B1C21
:103D3000E0915703F091580381E090E091838083F4
:103D400080E19EE0A0E0B0E082839383A483B5830A
:103D500087E293E00E940E1C81E691E09093280395
:103D60008093270384E991E09093300380932F039D
:103D700062E070E089E293E00E947C1B0F900F905C
:103D80000F900F900F900F90812F0E94511B009762
:103D900049F0612F0E948705892B21F01F5F1F3F8B
:103DA00099F71EEF8FE290E00E944C20E0902F03E5
:103DB000F090300300E026E0412F67E273E00E94BC
:103DC0009B1C11E0812F0E94511B009749F0612F2D
:103DD0000E948705892B21F01F5F1F3F99F71EEF77
:103DE0008FE290E00E944C20E0902F03F09030038F
:103DF00001E027E0412F67E273E00E949B1C81E60F
:103E000091E090932803809327038AE991E09093AF
:103E1000300380932F0380912B0390912C034091CA
:103E2000290350912A039C011816190614F430E056
:103E300020E0220F331FFA01E20FF31F0190F081FF
:103E4000E02D2AE931E0308727831816190614F48B
:103E500081E090E0880F991F840F951FDC01ED91A0
:103E6000FC918AE991E090878783A1960FB6F89438
:103E7000DEBF0FBECDBFDF91CF911F910F91FF909D
:103E8000EF900895789484B5826084BD84B5816094
:103E900084BD85B5826085BD85B5816085BD809115
:103EA0006E00816080936E0010928100809181008D
:103EB0008260809381008091800081608093800087
:103EC0008091B10084608093B1008091B0008160E6
:103ED0008093B00080917A008B7F80937A008091EC
:103EE0007A00826080937A0080917A00816080936A
:103EF0007A0080917A00806880937A001092C100E5
:103F0000A89580E090E0892B11F00E9400000E94AB
:103F10009301C0E1D0E0F12CFE01F595E795E25D5B
:103F2000FE4FE491C0FF70C0EF70E83008F07BC036
:103F3000F0E0E25DFE4FF4906F2D8AE892E00E947F
:103F400071022196C23FD10539F7C7E2D1E0FE01E7
:103F50006491662339F08AE892E00E94710221960A
:103F6000892BA9F780EA91E00E94C9098091790222
:103F70008D7F809379020E94B21841E050E063E0A7
:103F800071E088E792E00E94A1256FEF81E090E068
:103F90000E94C1258091B3018F788093B301109264
:103FA000A9011092A8018DE191E00E94F20585EF30
:103FB00096E19093A6018093A5010E94E3036B0113
:103FC0007C010E94E3036C197D098E099F09683802
:103FD000734181059105D0F00E941F17A895C0E09C
:103FE000D0E0A8950E94D4058091B20184FD0E9482
:103FF00030100E94D9152097A1F30E944502882312
:1040000081F30E940000EDCFE2958ECF0E94D4058F
:104010000E9400128091B20182FB882780F9A89546
:104020008111DACFCECF1BEF1E0F00E06F2D8AE893
:1040300092E00E9471020F5F0117C0F382CF81E30B
:1040400091E0909328038093270380912903909116
:104050002A03009711F00E94E82081E391E09093F9
:10406000460380934503809147039091480300974E
:1040700011F00E94E8208091B0039091B103009765
:1040800011F00E94E82080917603909177030097C9
:1040900011F00C94E82008950F931F93CF93DF93B2
:1040A0008230910510F482E090E0E0910404F091F8
:1040B000050430E020E0B0E0A0E0309799F421154D
:1040C000310509F44AC0281B390B24303105D8F5D5
:1040D0008A819B816115710589F1FB01938382833C
:1040E000FE0111C040815181028113814817590797
:1040F000E0F04817590799F4109761F012960C9365
:10410000129713961C933296CF01DF91CF911F9196
:104110000F9108950093040410930504F4CF211522
:10412000310551F04217530738F0A901DB019A011C
:10413000BD01DF01F801C1CFEF01F9CF9093050474
:1041400080930404CDCFFE01E20FF31F819391937E
:104150002250310939832883D7CF2091020430912E
:104160000304232B41F42091290130912A0130933B
:104170000304209302042091270130912801211586
:10418000310541F42DB73EB740912B0150912C01E0
:10419000241B350BE0910204F0910304E217F307AE
:1041A000A0F42E1B3F0B2817390778F0AC014E5FA7
:1041B0005F4F2417350748F04E0F5F1F50930304DD
:1041C00040930204819391939FCFF0E0E0E09CCF75
:1041D000CF93DF930097E9F0FC01329713821282AC
:1041E000A0910404B0910504ED0130E020E01097A7
:1041F000A1F420813181820F931F2091020430911C
:1042000003042817390709F061C0F0930304E09311
:104210000204DF91CF910895EA01CE17DF07E8F598
:104220004A815B819E0141155105B1F7E901FB838C
:10423000EA8349915991C40FD51FEC17FD0761F42A
:10424000808191810296840F951FE901998388836B
:10425000828193819B838A83F0E0E0E012968D91C6
:104260009C9113970097B9F52D913C911197CD0131
:104270000296820F931F20910204309103042817A5
:10428000390739F6309751F510920504109204045D
:10429000B0930304A0930204BCCFD383C2834081B4
:1042A0005181840F951FC817D90761F44E5F5F4F86
:1042B00088819981480F591F518340838A819B814E
:1042C000938382832115310509F0B0CFF093050463
:1042D000E09304049ECFFD01DC01C0CF1382128263
:1042E000D7CFFC0188279927E89421912032E9F360
:1042F000293010F02E30C8F32B3241F02D3239F432
:10430000689404C00E94CB21820F911D21912053FB
:104310002A30C0F31EF4909581959F4F08951F9306
:10432000FC0199278827BC01E89411911032E9F328
:10433000193010F01E30C8F31B3251F01D3249F411
:10434000689406C00E94B621610F711D811D911DE8
:10435000119110531A30B0F33EF4909580957095FA
:1043600061957F4F8F4F9F4F1F910895592F482F71
:10437000372F262F660F771F881F991F660F771F0D
:10438000881F991F620F731F841F951F660F771F69
:10439000881F991F08957AE0979F902D879F802D01
:1043A000910D11240895AEE0B0E0E9EDF1E20C9436
:1043B000EC258C01FA018EE08C831A83098377FF48
:1043C00002C060E070E8615071097E836D83A901CD
:1043D000BF01CE0101960E94FF214D815E8157FDF4
:1043E0000AC02F813885421753070CF49A01020F37
:1043F000131FF80110822E96E4E00C940826ABE01F
:10440000B0E0E5E0F2E20C94DE257C013B018A019C
:10441000FC0117821682838181FFC8C1CE010196FB
:104420005C01F7019381F30193FD859193FF8191E5
:104430003F01882309F453C1853239F493FD8591F6
:1044400093FF81913F01853229F4B70190E00E94EA
:10445000EF23E7CF912C212C312CFFE1F31538F01D
:104460008B3211F190F4803209F1833229F137FC5B
:104470003CC020ED280F2A3050F536FE20C08AE0DF
:10448000989E200D1124922E06C08D3291F080331B
:1044900071F7689430F8F30193FD859193FF819152
:1044A0003F018111DACF21C0689431F8689432F865
:1044B000F2CF689433F8EFCF689434F8ECCFEAE0A9
:1044C0002E9E200D1124222E689435F8E4CF8E32D2
:1044D00029F436FC04C1689436F8DDCF8C3619F423
:1044E000689437F8D8CF8836B1F2982F9F7D9554CD
:1044F0009330E0F08336A1F18337C1F1833509F0C1
:1045000063C02801F2E04F0E511CF801C080D18039
:10451000692D70E036FC02C06FEF7FEFC6010E948C
:10452000D9234C01689437F882010AC00C5F1F4FF1
:10453000FFE3F98388248394912C6501E89437F88C
:1045400033FE2DC0522C8114910471F5552009F4CD
:1045500068CFB70180E290E00E94EF235A94F6CF33
:10456000F801808189830E5F1F4FE4CF2801F2E0BC
:104570004F0E511CF801C080D180692D70E036FCCF
:1045800002C06FEF7FEFC6010E94E4234C0182015D
:10459000D5CFB70180E290E00E94EF232A9428143F
:1045A000190409F0B0F7CECFF60137FC859137FE3C
:1045B00081916F01B70190E00E94EF2351105A944E
:1045C000F1E08F1A9108BFCF843619F0893609F0CF
:1045D00077C0F80137FE6BC0608171818281938161
:1045E0000C5F1F4FF32DFF763F2E97FF09C090956C
:1045F0008095709561957F4F8F4F9F4F689437F8E6
:104600002AE030E0A5010E941F24C82ECA188C2C75
:10461000432C36FE0CC0E89440F8C91440F434FE34
:1046200005C032FC03C0F32DFE7E4F2E892C44FEC4
:1046300095C0FE01EC0DF11D8081803309F087C02B
:10464000242D297E422E842D8870582E43FC95C03F
:1046500040FE8FC09C2C821418F42C0C922C9818BD
:1046600044FE91C0B70180E390E00E94EF2342FE38
:1046700009C088E790E041FE02C088E590E0B701FC
:104680000E94EF23C91408F48AC0CA94D12C9FEF6A
:10469000C91AD90ACA0CDB1CF60182916F01B70155
:1046A00090E00E94EF23AC14BD04B1F74FCF6081BE
:1046B0007181072E000C880B990B0E5F1F4F92CF54
:1046C000D32CE894D4F82AE030E0853739F1232D53
:1046D000297FD22E8F3601F148F48835A9F0F701F1
:1046E000868197812B96E2E10C94FA25803749F078
:1046F0008837A9F7D4FE02C06894D2F820E130E0F0
:104700000DC06894D4F8F6CF34FE03C0822F8660C3
:10471000D82E20E132E002C028E030E0F801D7FED8
:104720000FC060817181828193810C5F1F4FA50151
:104730000E941F24C82ECA183D2CE89437F867CF72
:104740006081718190E080E00E5F1F4FF0CF42FCEE
:1047500002C0839478CF8394839475CF842D867818
:1047600009F471CFF6CFB70180E290E00E94EF2309
:1047700083948214C0F3512C73CF522C5818821496
:1047800008F46ECFF8CF842D867809F47BCF8BE2C6
:1047900041FE80E247FC8DE2B70190E071CFB701A6
:1047A00080E390E00E94EF239A946CCF8FEF9FEF0D
:1047B00099CFFC010590615070400110D8F78095A9
:1047C00090958E0F9F1F0895FC01615070400190DD
:1047D0000110D8F7809590958E0F9F1F08950F9325
:1047E0001F93CF93DF93182F092FEB018B8181FD4E
:1047F00009C01FEF0FEF812F902FDF91CF911F91F5
:104800000F91089582FF14C02E813F818C819D817C
:10481000281739073CF4E881F981CF010196998383
:10482000888310838E819F8101969F838E83E3CF3F
:10483000E885F985812F0995892BA1F3DACFFA0153
:10484000AA27283051F1203181F1E8946F936E7FCF
:104850006E5F7F4F8F4F9F4FAF4FB1E03ED0B4E0C0
:104860003CD0670F781F891F9A1FA11D680F791F01
:104870008A1F911DA11D6A0F711D811D911DA11D12
:1048800020D009F468943F912AE0269F1124301922
:10489000305D3193DEF6CF010895462F4770405DBD
:1048A0004193B3E00FD0C9F7F6CF462F4F70405D6C
:1048B0004A3318F0495D31FD4052419302D0A9F7C7
:1048C000EACFB4E0A6959795879577956795BA95C1
:1048D000C9F700976105710508959B01AC010A2E87
:1048E00006945795479537952795BA95C9F7620F5E
:1048F000731F841F951FA01D08950E94BF2408F4F4
:1049000081E00895E89409C097FB3EF49095809566
:10491000709561957F4F8F4F9F4F9923A9F0F92F85
:1049200096E9BB279395F695879577956795B79503
:10493000F111F8CFFAF4BB0F11F460FF1BC06F5FE9
:104940007F4F8F4F9F4F16C0882311F096E911C0FB
:10495000772321F09EE8872F762F05C0662371F01C
:1049600096E8862F70E060E02AF09A95660F771F30
:10497000881FDAF7880F9695879597F90895990F0C
:104980000008550FAA0BE0E8FEEF16161706E80719
:10499000F907C0F012161306E407F50798F0621B3A
:1049A000730B840B950B39F40A2661F0232B242B0F
:1049B000252B21F408950A2609F4A140A6958FEF2E
:1049C000811D811D08950E94F6240C9467250E9484
:1049D000592538F00E94602520F0952311F00C94A1
:1049E00050250C94562511240C949B250E94782563
:1049F00070F3959FC1F3950F50E0551F629FF00132
:104A0000729FBB27F00DB11D639FAA27F00DB11D4A
:104A1000AA1F649F6627B00DA11D661F829F2227D3
:104A2000B00DA11D621F739FB00DA11D621F839F5A
:104A3000A00D611D221F749F3327A00D611D231F30
:104A4000849F600D211D822F762F6A2F11249F577E
:104A500050409AF0F1F088234AF0EE0FFF1FBB1F81
:104A6000661F771F881F91505040A9F79E3F510540
:104A700080F00C9450250C949B255F3FE4F3983E06
:104A8000D4F3869577956795B795F795E7959F5FEA
:104A9000C1F7FE2B880F911D9695879597F908957C
:104AA00097F99F6780E870E060E008959FEF80ECE1
:104AB000089500240A941616170618060906089584
:104AC00000240A9412161306140605060895092EEA
:104AD0000394000C11F4882352F0BB0F40F4BF2B59
:104AE00011F460FF04C06F5F7F4F8F4F9F4F089599
:104AF00057FD9058440F551F59F05F3F71F047958F
:104B0000880F97FB991F61F09F3F79F08795089573
:104B1000121613061406551FF2CF4695F1DF08C092
:104B2000161617061806991FF1CF869571056105AF
:104B300008940895E894BB2766277727CB0197F957
:104B40000895DC01CB01FC01F999FECF06C0F2BD4E
:104B5000E1BDF89A319600B40D9241505040B8F73B
:104B60000895DC01A40FB51F4150504048F0CB011F
:104B7000840F951F2E910E94C22541505040D0F7BE
:104B80000895262FF999FECF92BD81BDF89A01971D
:104B900000B4021639F01FBA20BD0FB6F894FA9A85
:104BA000F99A0FBE08950E941526A59F900DB49FF7
:104BB000900DA49F800D911D112408952F923F9276
:104BC0004F925F926F927F928F929F92AF92BF921D
:104BD000CF92DF92EF92FF920F931F93CF93DF93C9
:104BE000CDB7DEB7CA1BDB0B0FB6F894DEBF0FBE26
:104BF000CDBF09942A88398848885F846E847D8473
:104C00008C849B84AA84B984C884DF80EE80FD8074
:104C10000C811B81AA81B981CE0FD11D0FB6F894EA
:104C2000DEBF0FBECDBFED010895A29FB001B39FBF
:104C3000C001A39F700D811D1124911DB29F700DA5
:104C4000811D1124911D08955058BB27AA270E9449
:104C50003C260C9467250E94592538F00E94602557
:104C600020F039F49F3F19F426F40C9456250EF4E5
:104C7000E095E7FB0C945025E92F0E94782558F326
:104C8000BA17620773078407950720F079F4A6F531
:104C90000C949A250EF4E0950B2EBA2FA02D0B0143
:104CA000B90190010C01CA01A0011124FF27591B71
:104CB00099F0593F50F4503E68F11A16F040A22F77
:104CC000232F342F4427585FF3CF469537952795E8
:104CD000A795F0405395C9F77EF41F16BA0B620BE7
:104CE000730B840BBAF09150A1F0FF0FBB1F661F2E
:104CF000771F881FC2F70EC0BA0F621F731F841F71
:104D000048F4879577956795B795F7959E3F08F096
:104D1000B0CF9395880F08F09927EE0F9795879558
:104D200008950E94A5260C9467250E94602558F0DE
:104D30000E94592540F029F45F3F29F00C9450253A
:104D400051110C949B250C9456250E94782568F3EC
:104D50009923B1F3552391F3951B550BBB27AA2734
:104D600062177307840738F09F5F5F4F220F331F6E
:104D7000441FAA1FA9F335D00E2E3AF0E0E832D036
:104D800091505040E695001CCAF72BD0FE2F29D039
:104D9000660F771F881FBB1F261737074807AB070B
:104DA000B0E809F0BB0B802DBF01FF2793585F4F80
:104DB0003AF09E3F510578F00C9450250C949B25B9
:104DC0005F3FE4F3983ED4F3869577956795B79562
:104DD000F7959F5FC9F7880F911D9695879597F96D
:104DE0000895E1E0660F771F881FBB1F62177307E6
:104DF0008407BA0720F0621B730B840BBA0BEE1FFB
:104E000088F7E09508950E940A276894B1110C94E0
:104E10009B2508950E94802588F09F5798F0B92F10
:104E20009927B751B0F0E1F0660F771F881F991FDF
:104E30001AF0BA95C9F714C0B13091F00E949A25C2
:104E4000B1E008950C949A25672F782F8827B85FD2
:104E500039F0B93FCCF3869577956795B395D9F737
:104E60003EF490958095709561957F4F8F4F9F4F41
:104E700008950E94BF2408F48FEF08950E94BF2474
:104E8000880B990B0895AA1BBB1B51E107C0AA1FF1
:104E9000BB1FA617B70710F0A61BB70B881F991FDB
:104EA0005A95A9F780959095BC01CD01089597FB7F
:104EB000072E16F4009407D077FD09D00E944327EF
:104EC00007FC05D03EF4909581959F4F089570950D
:104ED00061957F4F0895A1E21A2EAA1BBB1BFD010D
:104EE0000DC0AA1FBB1FEE1FFF1FA217B307E407C9
:104EF000F50720F0A21BB30BE40BF50B661F771F21
:104F0000881F991F1A9469F7609570958095909500
:104F10009B01AC01BD01CF010895EE0FFF1F05906D
:104F2000F491E02D0994FB01DC018D910190801931
:104F30000110D9F3990B0895FB01DC014150504059
:104F400048F001900D920020C9F701C01D92415018
:104F50005040E0F7089511E0C8E6D1E004C0FE013A
:104F60000E948D272196C936D107C9F7F894FFCF43
:104F7000FFFF00FCE1A8A8FF5C0B1E065D0C5F06AE
:104F80005E065A0648063E06730C7906FFA40A8D93
:104F90000CFF0D040D040100000604800000000059
:104FA000008F048605A1058F04000000007102DB5C
:104FB000010802BE02390217022B0200000000DFC6
:104FC00004B2040E058F04D4019F04900400000075
:104FD000001105A00EA1058F04000000008F049EA3
:104FE00012A1058F04322E332E3200200054656D3D
:104FF000702657696C6700312E303200424154549C
:10500000455259005348543231004854553231000A
:045010000D0A000085
:00000001FF
